13900210010001000000100941S0010     1319412DG000000027122017592628122000000000000000000000000000065000005354825022207329   145094412712200001111BEOGRAD      OTP ATM SENJAK                                              52000000000000013900022937577000200      2020122826011                                                                05103621730251400000000000000000000000000000000000000000000000000000000000        
13900210010001000000100941S0010     1319412DG000000027122006281828122000000000000000000000000000025000005354825035620435   136906412712200001111BEOGRAD      OTP ATM SENJAK                                              52000000000000013900022937577000200      2020122826011                                                                05103620627985200000000000000000000000000000000000000000000000000000000000        
13900210010001000000100941S0010     1319412DG000000027122013513328122000000000000000000000000000010000005354825038781341   183714312712200001111BEOGRAD      OTP ATM SENJAK                                              52000000000000013900022937577000200      2020122826011                                                                05103621329296800000000000000000000000000000000000000000000000000000000000        
13900210010001000000100941S0010     1319412DG000000027122014182528122000000000000000000000000000100000005354825055651864   125189712712200001111BEOGRAD      OTP ATM SENJAK                                              52000000000000013900022937577000200      2020122826011                                                                05103621429429100000000000000000000000000000000000000000000000000000000000        
13900210010001000000100941S0010     1319412DG000000027122008470728122000000000000000000000000000050000005354825063870837   151043612712200001111BEOGRAD      OTP ATM SENJAK                                              52000000000000013900022937577000200      2020122826011                                                                05103620828070800000000000000000000000000000000000000000000000000000000000        
13900210010001000000100941S0010     1319412DG000000027122006554428122000000000000000000000000000025000005354825073442031   185552512712200001111BEOGRAD      OTP ATM SENJAK                                              52000000000000013900022937577000200      2020122826011                                                                05103620627992100000000000000000000000000000000000000000000000000000000000        
13900210010001000000100941S0010     1319412DG000000027122018063228122000000000000000000000000000025000005354825099781032   119364812712200001111BEOGRAD      OTP ATM SENJAK                                              52000000000000013900022937577000200      2020122826011                                                                05103621830276700000000000000000000000000000000000000000000000000000000000        
13900210010001000000100941S0010     1319412DG000000027122019033928122000000000000000000000000000240000005354826037402889   145099012712200001111BEOGRAD      OTP ATM SENJAK                                              52000000000000013900022937577000200      2020122826011                                                                05103621930444600000000000000000000000000000000000000000000000000000000000        
13900210010001000000100941S0010     1319412DG000000027122010200528122000000000000000000000000000200000005354826297487828   145047612712200001111BEOGRAD      OTP ATM SENJAK                                              52000000000000013900022937577000200      2020122826011                                                                05103621028282000000000000000000000000000000000000000000000000000000000000        
